:020000040800F2
:10000000000001201D1000086D1000086D10000890
:100010006D1000086D1000086D1000080000000051
:100020000000000000000000000000006D1000084B
:100030006D100008000000006D1000081D0C000885
:100040006D1000086D1000086D1000086D1000089C
:100050006D1000086D1000086D1000086D1000088C
:100060006D1000086D1000086D1000086D1000087C
:100070006D1000086D1000086D1000086D1000086C
:100080006D1000086D1000086D10000800000000E1
:100090000000000000000000000000006D100008DB
:1000A0006D1000086D1000086D1000086D1000083C
:1000B0006D1000086D1000086D1000086D1000082C
:1000C0006D1000086D1000086D1000086D1000081C
:1000D0006D1000086D1000086D1000080000000091
:1000E0006D1000086D1000086D1000080000000081
:1000F0000000000000000000000000006D1000087B
:10010000000000006D1000086D1000086D10000860
:1001100000000000000000000000000000000000DF
:100120006D1000086D1000086D1000086D100008BB
:100130006D1000080000000000000000000000003A
:100140000000000000000000000000006D1000082A
:100150006D1000086D1000086D1000086D1000088B
:100160006D1000086D100008000000000000000085
:10017000000000000000000000000000000000007F
:10018000000000006D1000080000000000000000EA
:040190006D100008E6
:100194007BB972B90029BEBF00204FF0004106E0D0
:1001A40008BF00281CBF6FF000414FF0FF3000F083
:1001B4003FB8ADF1080C6DE904CE002909DB002B32
:1001C4001ADB00F052FFDDF804E0DDE9022304B09D
:1001D4007047404261EB4101002B1BDB00F045FFFF
:1001E400DDF804E0DDE9022304B0404261EB4101A3
:1001F400524263EB43037047524263EB430300F004
:1002040034FFDDF804E0DDE9022304B0404261EB91
:1002140041017047524263EB430300F026FFDDF8CF
:1002240004E0DDE9022304B0524263EB4303704768
:10023400704700BF10B5054C237833B9044B13B194
:100244000448AFF300800123237010BD3004002064
:1002540000000000E812000808B5034B1BB1034975
:100264000348AFF3008008BD000000003404002000
:10027400E8120008002301461A46184600F03AB86E
:1002840038B5084B084D5B1B9C1007D0043B1D443C
:10029400013C55F804399847002CF9D1BDE83840A1
:1002A40001F026B8681300086413000870B50D4EF9
:1002B4000D4D761BB61006D0002455F8043B0134CE
:1002C4009847A642F9D1094E094D761B01F00AF868
:1002D400B61006D0002455F8043B01349847A642D2
:1002E400F9D170BD5C1300085C13000864130008A6
:1002F4005C1300082DE9F8431D4D0646286898460E
:100304000F46914600F042F81A4B1B68D3F8484157
:100314001CB3286865681F2D24DC4EB96B1C02359C
:10032400636044F8257000F033F80020BDE8F883DA
:1003340004EB85010123C1F88890D4F88821AB40EF
:100344001A43022EC4F88821C1F80881E6D1D4F8F2
:100354008C211343C4F88C31E0E703F5A674C3F889
:100364004841D6E700F014F84FF0FF30DEE700BF55
:10037400280400202C130008024B13B10248FFF795
:1003840079BF70470000000085020008704700BF75
:10039400704700BF064A536C43F001035364054B96
:1003A40043F2FF129A621A6842F001021A6070471F
:1003B40000380240000001401D4A536C43F480534E
:1003C4005364136B43F4800343F003031363194B27
:1003D40000229A604CF206321A601A6842F0400217
:1003E4001A60154A136843F004031360134B196829
:1003F40041F480211960916841F00C0191609A6880
:1004040042F440229A601A6822F44C6242F4086270
:100414001A609A6842F44C629A601A6A22F4700272
:1004240022F4704242F4A00242F4A0421A627047DD
:100434000038024000300140000002400004024045
:1004440038B50024224621462046083400F09CFD9D
:10045400E4B200F0E1FCF82CF4D122462146FF205E
:1004640000F092FD083C00F0D7FC14F0FF04F4D136
:1004740021460022FF20083400F086FDE4B200F09B
:10048400CBFCF82CF4D10022FF21204600F07CFDA7
:10049400083C00F0C1FC14F0FF04F4D12246FF2113
:1004A4000020083400F070FDE4B200F0B5FCF82C34
:1004B400F4D125462946FF22002000F065FD083DC1
:1004C40000F0AAFC15F0FF05F4D1002122460846ED
:1004D40000F05AFD083C00F09FFC14F0FF04F4D136
:1004E40038BD2DE9F04F0646ADF5757D0D46144631
:1004F40000F02BFCB5FBF6F202F0010306FB1255EB
:10050400AAB20093B4FBF6F306FB134403F001090B
:100514000192A4B20025EA07ABB225D4002B3DD149
:100524000DF1100AEBB2DDE900B7DA434FF0000831
:10053400D2B2CB4536D118465FFA88F103920293C2
:1005440000F022FDDDE902320137BFB2BE422AF8D3
:10055400180008F1010804BF8BF0010B0027B8F163
:10056400F00FE6D15DB108E004A80DF5F87A4FF478
:10057400F07100F091FBF02DD4D100F0B5FB013403
:10058400A4B2A64205F1010504BF89F001090024C3
:10059400F12DC0D10DF5757DBDE8F08F7CA80DF16E
:1005A400100AE4E74FF6FF70CEE72DE9F04101248D
:1005B4000134A4B2002211462046FFF792FF332CE7
:1005C400F6D100240334A4B2002221463320FFF7DD
:1005D40088FF962CF6D100252C460A2605EB45010A
:1005E400B5FBF6F323449CB29931224689B23320F9
:1005F4000135FFF776FF322DF0D100254FF49676C2
:100604004FF019080A27B5FBF8F3033333449EB2BD
:10061400B5FBF7F3053323449CB22246314633201D
:100624000135FFF75EFF642DEDD106F18C07BFB2F3
:10063400A046073608F10F08B6B21FFA88F84246FA
:1006440031463320FFF74DFFB742F2D104F59674DB
:10065400A4B26426C5EBC503B3FBF6F33B449FB2D7
:10066400C5EB0513B3FBF6F31C44A4B2224639468A
:100674003320FFF736FF013DECD1BDE8F081F0B542
:100684000B46054604464FF0000C1FFA8CF08242DC
:1006940000D8F0BD03FB03F604FB04F776134FEA1E
:1006A400673E06EB6737B7F5004F0CF1010CF0DC41
:1006B4006343AEEB060E01EB23330EEB0504E4E7D4
:1006C4002DE9F04FADF2544D8046BDF878640C46E8
:1006D40017461D4600F039FB4FEA062A0DF1100BB0
:1006E4004FF00009B145AAF5807A45D3F0232C1BBD
:1006F400A7EB080797FBF3F294FBF3F30192029341
:100704000024E3075FFA84FB46D4BBF1000F46D014
:100714009CA824AF4FF4F07100F0BEFAA7F10209CF
:1007240007F5EF73C2463246504629460393FFF756
:10073400A6FF864216BF04AA002232F8102029F828
:10074400022F039B019A4B459244ECD1029BED1A74
:100754005CB100F0C9FABBF1EF0F06D14FF4F071B0
:10076400384600F099FA00F0BFFA0134F02CC8D1F1
:100774000DF2544DBDE8F08F4FEA09210022B1FB80
:10078400F6F1BAFBF6F0C9B2C0B200F0FDFB09F114
:1007940001092BF8020BA5E724A89CAFBAE724AF04
:1007A400BCE700002DE9F04F85B0CDE90113DDF879
:1007B40004A0814611461E4605464FF0000805FB7D
:1007C4000AF7A5FB054E0EEB470E4FEA2E57A1FB89
:1007D40001CB039701FB06F70BEB4707240D4FEA08
:1007E4001C5C44EA0E344CEA073C164B14EB0C0B2D
:1007F4004FEA275747EB2E5E9B457EF1000E1FFA0A
:1008040088F01CDA6E4301FB0A66A5FB01152E4431
:10081400C90C029B41EA4631891843EBE646039B27
:10082400B4EB0C0463EB0700019B14EB090508F11E
:10083400010843EB000AB8F5806FC0D1404605B00B
:10084400BDE8F08F010040002DE9F04FADF6E43D26
:100854009946DDF80C3CDDF8087CDDF8104CDDF839
:10086400148C0293CDE90001164600F06EFA0DF5E2
:10087400787A002540F2FF3B3F2DEAB276DCABEB01
:1008840005009100C0F38700C9B200F07DFB01357B
:10089400B5F5806F2AF8020BEED1DDE90151009B1A
:1008A400F81A61EB0501F0220023FFF771FCCDE992
:1008B4000301A01B4FF0F0024FF0000368EB0901A5
:1008C400FFF766FCCDE905010025EB075FFA85FA21
:1008D40047D4BAF1000F47D080A808AF4FF4F071A5
:1008E40000F0DAF9DDE9006107F5EF73A7F1020919
:1008F40002930DF5787B4346304622460791FFF775
:1009040051FFB0F5806F18BF3BF81030079908BF4E
:10091400002329F8023F039B9E19049B43EB01012A
:10092400029B4B45E7D1059BE41A069B68EB030841
:100934005DB100F0D9F9BAF1EF0F06D14FF4F071BF
:10094400384600F0A9F900F0CFF90135F02DBCD1FB
:100954000DF6E43DBDE8F08FC2F13F01C9B20020BD
:1009640093E708A880AFB9E708AFBBE7B5F59F7F69
:10097400F2DD0020014688E770B52DED088B3B4E73
:100984003B4D84B00824A3B2009341F2666242F660
:10099400333331462846FFF793FE013444F6206092
:1009A40000F042F9102CEED1DFED329A9FED329A2D
:1009B400DFED328A9FED32BADFED32AA9FED32AA23
:1009C400B8EE008AB2EE027AF0EE4B6AE8EE076AFD
:1009D40000940134F2EE047A86EEA78AA4B2F0EE13
:1009E4006A6AE9EE076A86EEA79AF4EE006AE8EE10
:1009F400876AC6EEA78AF0EE4A6AE9EE876AC6EE0F
:100A0400A79AF0EE697AFEEEE97A17EE903AF0EEE4
:100A1400497AFEEEE97A17EE902AF0EE687AFEEE55
:100A2400E97A17EE901AF0EE487AFEEEE97A17EEBC
:100A3400900AFFF745FE282CC4D1144A1448002319
:100A4400CDE90223134A4FF0FF33CDE900234FF0E1
:100A5400FF314FF400320023FFF7F6FE0E4804B0D6
:100A6400BDEC088BBDE8704000F0DEB8CDD4FFFFCC
:100A740000C0FFFFCDCCAC3F3333333FCDCCACBF54
:100A840077BE3FBF1B2F3DBF713D0A3EF5280200D4
:100A94001904F4FF0F2DF4FF00093D00034A116807
:100AA40013685B1A8342FBD3704700BF50040020D5
:100AB4000A4A136B43F004031363094B9A6942F423
:100AC40000529A611A6822F0406242F080621A6011
:100AD4005A6822F400525A60704700BF003802403E
:100AE40000080240294B1A6842F480721A601A689E
:100AF40022F0070242F002021A601A6802F00702AA
:100B0400022AFAD1224B5A6822F03F025A605A68EC
:100B140042F019025A605A6822F4FF4222F040025D
:100B24005A605A6842F428525A605A6822F4403291
:100B34005A605A6842F480025A609A6822F080022D
:100B44009A609A6822F4E05242F480529A609A6859
:100B540022F400429A601A6842F480321A601A68D9
:100B64009203FCD51A6842F080721A60084A13682E
:100B74009B01FCD5936823F0030343F002039360C5
:100B8400936803F00C03082BFAD17047003C024031
:100B94000038024008B5FFF7A5FF00F007FA1B4B29
:100BA4004FF47A721B68B3FBF2F3013BB3F1807F1D
:100BB4000AD24FF0E022F0215361154B83F8231041
:100BC4000023936107231361FFF772FFFFF7E2FB32
:100BD400FFF7F2FB00F032F800F028F90D4CA3699E
:100BE40043F00053A3614FF4FA70FFF757FFA36972
:100BF40043F40053A3614FF49670FFF74FFFFFF7E0
:100C04001FFCFFF7D2FCFFF7B7FEE8E72C04002037
:100C140000ED00E000080240024A1368013313604B
:100C2400704700BF50040020C0010623B0FBF3F05E
:100C340000B9704700BF0138FAE7000010B5084C4E
:100C4400636923F40073636142F21070FFF7ECFFF1
:100C54006369044843F400736361FFF7E5FF10BD63
:100C640000040240C0D40100024A536923F0020385
:100C74005361704700000240024A536943F0020383
:100C84005361704700000240024B9A689207FCD5FA
:100C9400D860704700300140104B114A9A65114AE0
:100CA40058661A66D96552F80C1C21F0400142F8C6
:100CB4000C1C52F8081C41F0020142F8081C52F8BE
:100CC4000C1C41F0400142F80C1C4FF0FF329A60BA
:100CD4009A6D42F001029A65704700BF00640240B9
:100CE400400400060C300140024AD36D002BFCD1B5
:100CF400704700BF0064024010B50146FFF7B4FF1F
:100D04000078FFF7C1FF8B783BB94B7823B14FF4E0
:100D14007A705843FFF788FF10BDFFF7ADFF00243A
:100D24008A78E3B29A42F0D94A68D05CFFF7ACFF04
:100D34000134F5E710B504462378FF2B00D110BD2C
:100D44002046FFF7D9FF0834F6E708B52C20FFF753
:100D54008BFFFFF799FFBDE80840FFF78DBF00B593
:100D64008BB05BBAADF806302A23ADF80830042303
:100D74008DF80A308DF8123052BA6B44ADF8022067
:100D8400059340BA2B222C23ADF8000049BAADF8E4
:100D94001020ADF81830FF22002302A88DF81A3075
:100DA4000793ADF820208DF822300993ADF8041094
:100DB400CDF80CD0FFF758FFFFF7BCFFFFF75CFF3F
:100DC4000BB05DF804FBF0B5A1B00D46BDF898700A
:100DD40011466A461C46164600230133402B22F86E
:100DE400020BFAD1621E7B1E0B442A4428469BB296
:100DF40092B2FFF7B4FF7C43640080250CB921B0A4
:100E0400F0BDA54288BFA5B229463046641BFFF752
:100E140043FFFFF769FFF1E707B5F02300220093D2
:100E24001146FFF7D0FF03B05DF804FB30B5AFB057
:100E34003A22ADF848204B4A13922122ADF85020B3
:100E44002A22ADF8582004228DF85A208DF8622009
:100E54004FF06F436A44444C1992CDE90033B222F7
:100E64004FF42163ADF82830ADF868204CF6010347
:100E74000522ADF830308DF86A2047F61103A21C24
:100E8400ADF838301B923623B7220025ADF8403038
:100E9400ADF870200123354A8DF82A502B210B958B
:100EA4008DF832500D958DF83A500F958DF84230EB
:100EB40011948DF84A308DF852501595ADF86010A4
:100EC4008DF87230CDF85CD01D928DF87A308DF8A3
:100ED40082308DF892308DF89A30BB22244BADF8D5
:100EE40078202793234A1F92D023ADF8A0302249BB
:100EF400224B2391C022ADF880202993204A2192CD
:100F0400C421B023ADF89010ADF8A8301D49259147
:100F140004F10803C222C621ADF888202B930222D3
:100F2400FF230AA88DF88A20ADF898108DF8A22026
:100F34008DF8AA20ADF8B0308DF8B2502D950C3450
:100F4400FFF7F8FE2846FFF767FF0FCC02AD0FC589
:100F540094E80F0085E80F0002A8FFF7EBFE2FB01E
:100F640030BD00BF3013000800130008321300081E
:100F74003D13000834130008381300083F13000819
:100F8400361300083B1300088908D20842EA4112CC
:100F9400C00842EAC0207047034AD2F8883043F4BC
:100FA4007003C2F88830704700ED00E0154B9A6872
:100FB40002F00C02042A21D0082A21D159685A6867
:100FC4005B684902C3F388134CBF0F490F4902F011
:100FD4003F02B1FBF2F253430A4A5268C2F30142A0
:100FE40001325200B3FBF2F3064A09499268C2F394
:100FF40003128A5CD340074A13607047024BF3E73D
:10100400024BF1E70038024040787D010024F400EF
:10101400421300082C040020DFF834D00D480E4998
:101024000E4A002302E0D458C4500433C4188C423E
:10103400F9D30B4A0B4C002301E013600432A242A3
:10104400FBD3FFF7A9FFFFF731F9FFF7A3FD7047C3
:101054000000012000000020300400206813000874
:101064003004002054040020FEE72DE9F0478C46AC
:101074008E46089E154604461946002B40F0AF8064
:101084007245B2FA82F743D94FB1C7F120030EFA81
:1010940007FC20FA03F3BD4043EA0C0CBC404FEAC2
:1010A400154EA8B2BCFBFEF8230C0EFB18CC08FBB3
:1010B40000F943EA0C43994528D9EB1808F1FF32AB
:1010C40004D2994502D9A8F102022B44A3EB0903E7
:1010D400B3FBFEFCA4B20EFB1C330CFB00F044EA91
:1010E4000344A04279D92C190CF1FF3304D2A04255
:1010F40002D9ACF102032C44241A43EA02401EB183
:10110400FC40002334607360BDE8F0874246DDE7AD
:1011140002B9FFDEE7B9AEEB020301214FEA154E37
:10112400A8B2B3FBFEFC220C0EFB1C330CFB00F834
:1011340042EA034398454ED9EB180CF1FF3204D22E
:10114400984502D9ACF102022B44A3EB0803BFE794
:10115400C7F120012EFA01F3BD400EFA07FE20FA72
:1011640001F141EA0E014FEA154EAAB2B3FBFEFCAF
:101174000EFB1C300B0C0CFB02F843EA00439845B1
:1011840004FA07F423D9EB180CF1FF3004D2984584
:1011940002D9ACF102002B44A3EB0803B3FBFEFC21
:1011A4000CFB02F80EFB1C328BB243EA0243984557
:1011B4000FD9EB180CF1FF3104D2984502D9ACF1E8
:1011C40002012B44A3EB080341EA0041A6E7604671
:1011D400E2E76146F6E76246B7E763468CE77345A4
:1011E40005D90EB1C6E9000E002108468CE7B3FA12
:1011F40083F787B9734501D382420AD8841A6EEB08
:10120400030301209C46002E6AD0C6E9004C00214D
:101214007AE73846F7E7C7F1200CBB4022FA0CF412
:101224001C4320FA0CF12EFA0CF30EFA07FE41EAE5
:101234000E014FEA144900FA07F5B3FBF9F81FFA57
:1012440084FE09FB18300B0C08FB0EFA43EA00433A
:101254009A4502FA07F23FD9E31808F1FF3004D2A5
:101264009A4502D9A8F102002344A3EB0A0389B2E8
:10127400B3FBF9F809FB183308FB0EFE41EA0341FE
:101284008E452BD9611808F1FF3304D28E4502D95B
:10129400A8F10203214443EA0040A0FB0298A1EB19
:1012A4000E014145CE46434602D306D14D4504D2F4
:1012B400B9EB020E68EB040301388EB1B5EB0E02F4
:1012C40061EB030101FA0CFC22FA07F34CEA030375
:1012D400F940C6E900319AE74046C6E74346DAE7F3
:1012E400314611E7F8B500BFF8BC08BC9E4670470C
:0C12F400F8B500BFF8BC08BC9E4670476F
:1013000000000C0C003333000008000029640000CA
:101310000000000011640000000000003500000023
:1013200000000000FF00000000000000000000209E
:10133000550035001F002C0001C30020000F00A441
:10134000A1000000000000000000010203040607E5
:041350000809000088
:081354001AFDFF7F01000000FB
:08135C007D0300085D0200089A
:041364003902000842
:1013680000000000EC02002054030020BC03002011
:101378000000000000000000000000000000000065
:101388000000000000000000000000000000000055
:101398000000000000000000000000000000000045
:1013A8000000000000000000000000000000000035
:1013B8000000000000000000000000000000000025
:1013C8000000000000000000000000000000000015
:1013D8000000000000000000000000000000000005
:1013E80000000000000000000000000000000000F5
:1013F80000000000000000000000000000000000E5
:1014080000000000000000000100000000000000D3
:101418000E33CDAB34126DE6ECDE05000B00000098
:1014280000000000000000000000000000000000B4
:1014380000000000000000000000000000000000A4
:101448000000000000000000000000000000000094
:101458000000000000000000000000000000000084
:1017880000000000000000004C0400200024F400C9
:040000050800101DC2
:00000001FF
