:020000040800F2
:100000000000012085230008D5230008D52300081F
:10001000D5230008D5230008D523000800000000E0
:10002000000000000000000000000000D5230008D0
:10003000D523000800000000D5230008051C000897
:10004000D5230008D5230008D5230008D5230008B0
:10005000D5230008D5230008D5230008D5230008A0
:10006000D5230008D5230008D5230008D523000890
:10007000D5230008D5230008D5230008D523000880
:10008000D5230008D5230008D52300080000000070
:10009000000000000000000000000000D523000860
:1000A000D5230008D5230008D5230008D523000850
:1000B000D5230008D5230008D5230008D523000840
:1000C000D5230008D5230008D5230008D523000830
:1000D000D5230008D5230008D52300080000000020
:1000E000D5230008D5230008D52300080000000010
:1000F000000000000000000000000000D523000800
:1001000000000000D5230008D5230008D5230008EF
:1001100000000000000000000000000000000000DF
:10012000D5230008D5230008D5230008D5230008CF
:10013000D5230008000000000000000000000000BF
:10014000000000000000000000000000D5230008AF
:10015000D5230008D5230008D5230008D52300089F
:10016000D5230008D523000800000000000000008F
:10017000000000000000000000000000000000007F
:1001800000000000D523000800000000000000006F
:04019000D52300086B
:100194007BB972B90029BEBF00204FF0004106E0D0
:1001A40008BF00281CBF6FF000414FF0FF3000F083
:1001B40069B9ADF1080C6DE904CE002909DB002B07
:1001C4001ADB02F03DF9DDF804E0DDE9022304B0B6
:1001D4007047404261EB4101002B1BDB02F030F918
:1001E400DDF804E0DDE9022304B0404261EB4101A3
:1001F400524263EB43037047524263EB430302F002
:100204001FF9DDF804E0DDE9022304B0404261EBAC
:1002140041017047524263EB430302F011F9DDF8E8
:1002240004E0DDE9022304B0524263EB4303704768
:1002340070B54FF0FF0C4CF4E06C1CEA11541DBF78
:100244001CEA135594EA0C0F95EA0C0F00F0DEF843
:100254002C4481EA030621EA4C5123EA4C5350EA28
:10026400013518BF52EA033541F4801143F4801379
:1002740038D0A0FB02CE4FF00005E1FB02E506F00A
:100284000042E0FB03E54FF00006E1FB03569CF05F
:10029400000F18BF4EF0010EA4F1FF04B6F5007F65
:1002A40064F5407404D25FEA4E0E6D4146EB0606D7
:1002B40042EAC62141EA55514FEAC52040EA5E5060
:1002C4004FEACE2EB4F1FD0C88BFBCF5E06F1ED80A
:1002D400BEF1004F08BF5FEA500E50F1000041EB41
:1002E400045170BD06F0004646EA010140EA0200EE
:1002F40081EA0301B4EB5C04C2BFD4EB0C0541EA10
:10030400045170BD41F480114FF0000E013C00F324
:10031400AB8014F1360FDEBF002001F0004170BD48
:10032400C4F10004203C35DA0C341BDC04F1140461
:10033400C4F1200500FA05F320FA04F001FA05F2ED
:1003440040EA020001F0004221F0004110EBD370BA
:1003540021FA04F642EB06015EEA430E08BF20EAE6
:10036400D37070BDC4F10C04C4F1200500FA04F389
:1003740020FA05F001FA04F240EA020001F000411B
:1003840010EBD37041F100015EEA430E08BF20EA8E
:10039400D37070BDC4F1200500FA05F24EEA020ED6
:1003A40020FA04F301FA05F243EA020321FA04F005
:1003B40001F0004121FA04F220EA020000EBD370BC
:1003C4005EEA430E08BF20EAD37070BD94F0000FBC
:1003D4000FD101F00046400041EB010111F4801FF0
:1003E40008BF013CF7D041EA060195F0000F18BFA1
:1003F400704703F00046520043EB030313F4801FDD
:1004040008BF013DF7D043EA0603704794EA0C0F96
:100414000CEA135518BF95EA0C0F0CD050EA4106AC
:1004240018BF52EA4306D1D181EA030101F0004129
:100434004FF0000070BD50EA410606BF1046194651
:1004440052EA430619D094EA0C0F02D150EA01365D
:1004540013D195EA0C0F05D152EA03361CBF10469E
:1004640019460AD181EA030101F0004141F0FE413D
:1004740041F470014FF0000070BD41F0FE4141F4C1
:10048400780170BD704700BF81F0004102E000BFF9
:1004940083F0004330B54FEA41044FEA430594EA40
:1004A400050F08BF90EA020F1FBF54EA000C55EA7B
:1004B400020C7FEA645C7FEA655C00F0E2804FEA4C
:1004C4005454D4EB5555B8BF6D420CDD2C4480EA2E
:1004D400020281EA030382EA000083EA010180EA5E
:1004E400020281EA0303362D88BF30BD11F0004FAC
:1004F4004FEA01314FF4801C4CEA113102D04042E2
:1005040061EB410113F0004F4FEA03334CEA13331C
:1005140002D0524263EB430394EA050F00F0A78034
:10052400A4F10104D5F1200E0DDB02FA0EFC22FA2F
:1005340005F2801841F1000103FA0EF2801843FA23
:1005440005F359410EE0A5F120050EF1200E012A14
:1005540003FA0EFC28BF4CF0020C43FA05F3C01852
:1005640051EBE37101F0004507D54FF0000EDCF1CB
:10057400000C7EEB00006EEB0101B1F5801F1BD374
:10058400B1F5001F0CD349085FEA30004FEA3C0C78
:1005940004F101044FEA445212F5800F80F09A806E
:1005A400BCF1004F08BF5FEA500C50F1000041EB72
:1005B400045141EA050130BD5FEA4C0C404141EB76
:1005C4000101013C28BFB1F5801FE9D291F0000F71
:1005D40004BF01460020B1FA81F308BF2033A3F120
:1005E4000B03B3F120020CDA0C3208DD02F1140C17
:1005F400C2F10C0201FA0CF021FA02F10CE002F152
:100604001402D8BFC2F1200C01FA02F120FA0CFC4A
:10061400DCBF41EA0C019040E41AA2BF01EB045193
:10062400294330BD6FEA04041F3C1CDA0C340EDC91
:1006340004F11404C4F1200220FA04F001FA02F3D4
:1006440040EA030021FA04F345EA030130BDC4F192
:100654000C04C4F1200220FA02F001FA04F340EA87
:100664000300294630BD21FA04F0294630BD94F038
:10067400000F83F4801306BF81F480110134013D1F
:100684004EE77FEA645C18BF7FEA655C29D094EA90
:10069400050F08BF90EA020F05D054EA000C04BF0E
:1006A4001946104630BD91EA030F1EBF00210020F9
:1006B40030BD5FEA545C05D14000494128BF41F098
:1006C400004130BD14F580043CBF01F5801130BDFC
:1006D40001F0004545F0FE4141F470014FF0000087
:1006E40030BD7FEA645C1ABF194610467FEA655C38
:1006F4001CBF0B46024650EA013406BF52EA0335DA
:1007040091EA030F41F4002130BD00BF90F0000FC7
:1007140004BF0021704730B54FF4806404F1320403
:100724004FF000054FF0000150E700BF90F0000FBC
:1007340004BF0021704730B54FF4806404F13204E3
:1007440010F0004548BF40424FF000013EE700BFB3
:1007540042004FEAE2014FEA31014FEA02701FBF43
:1007640012F07F4393F07F4F81F06051704732F075
:100774007F4208BF704793F07F4F04BF41F40021CC
:10078400704730B54FF4607401F0004521F000412A
:100794001CE700BF50EA010208BF704730B54FF0B4
:1007A40000050AE050EA010208BF704730B511F0B5
:1007B400004502D5404261EB41014FF4806404F1ED
:1007C40032045FEA915C3FF4D8AE4FF003025FEA73
:1007D400DC0C18BF03325FEADC0C18BF033202EBF7
:1007E400DC02C2F1200300FA03FC20FA02F001FA51
:1007F40003FE40EA0E0021FA02F11444BDE600BFF4
:100804004A0011D212F5001211D20DD56FF478738B
:10081400B3EB62520ED44FEAC12343F0004343EAE0
:10082400505323FA02F070474FF00000704750EA2B
:10083400013002D14FF0FF3070474FF00000704795
:1008440010B5054C237833B9044B13B10448AFF306
:1008540000800123237010BD30040020000000003C
:10086400C026000808B5034B1BB103490348AFF386
:10087400008008BD0000000034040020C0260008E9
:10088400002301461A46184600F03AB838B5084B1A
:10089400084D5B1B9C1007D0043B1D44013C55F8DC
:1008A40004399847002CF9D1BDE8384001F00CBF59
:1008B400502700084C27000870B50D4E0D4D761BCF
:1008C400B61006D0002455F8043B01349847A642DC
:1008D400F9D1094E094D761B01F0F0FEB61006D091
:1008E400002455F8043B01349847A642F9D170BD61
:1008F40044270008442700084C2700084427000820
:100904002DE9F8431D4D0646286898460F46914642
:1009140000F042F81A4B1B68D3F848411CB328680E
:1009240065681F2D24DC4EB96B1C0235636044F8E6
:10093400257000F033F80020BDE8F88304EB85014E
:100944000123C1F88890D4F88821AB401A43022EC1
:10095400C4F88821C1F80881E6D1D4F88C21134366
:10096400C4F88C31E0E703F5A674C3F84841D6E730
:1009740000F014F84FF0FF30DEE700BF2804002039
:1009840028270008024B13B10248FFF779BF7047CC
:100994000000000091080008704700BF704700BFC6
:1009A40080B483B000AF03463960FB7197F9073018
:1009B400002B0ADB3B68DAB20C4997F907301201C5
:1009C400D2B20B4483F800230AE03B68DAB2084948
:1009D400FB7903F00F03043B1201D2B20B441A76E5
:1009E40000BF0C37BD465DF8047B704700E100E0B2
:1009F40000ED00E080B582B000AF78607B68013B19
:100A0400B3F1807F01D301230FE00A4A7B68013BE5
:100A140053600F214FF0FF30FFF7C2FF054B002258
:100A24009A60044B07221A60002318460837BD4613
:100A340080BD00BF10E000E080B400AF0A4B5B6CE7
:100A4400094A43F001035364084B43F2FF129A62CC
:100A5400064B1B68054A43F00103136000BFBD4603
:100A64005DF8047B704700BF00380240000001407D
:100A740080B400AF284B5B6C274A43F48053536423
:100A8400254B1B6B244A43F4800343F00303136395
:100A9400224B00229A60214B4CF206321A601F4B03
:100AA4001B681E4A43F0400313601D4B1B681C4A1D
:100AB40043F0040313601B4B1B681A4A43F480235E
:100AC4001360174B9B68164A43F00C039360154B55
:100AD4009B68144A43F440239360124B1B6823F42D
:100AE4004C63104A43F4086313600E4B9B680D4A31
:100AF40043F44C6393600B4B1B6A23F4700323F49D
:100B04007043084A43F4A00343F4A043136200BFB4
:100B1400BD465DF8047B7047003802400030014058
:100B2400000002400004024080B582B000AF002300
:100B3400FB710CE0FA79F979FB79184601F06BFB4B
:100B44000346184601F056FBFB790833FB71FB7929
:100B5400F72BEFD9F823BB710CE0BA79BB791946AE
:100B6400FF2001F058FB0346184601F043FBBB7914
:100B7400083BBB71BB79002BEFD100237B710CE0E8
:100B84007B7900221946FF2001F045FB03461846F5
:100B940001F030FB7B7908337B717B79F72BEFD93C
:100BA400F8233B710CE03B790022FF21184601F049
:100BB40032FB0346184601F01DFB3B79083B3B71B1
:100BC4003B79002BEFD10023FB700CE0FB781A4635
:100BD400FF21002001F01FFB0346184601F00AFB29
:100BE400FB780833FB70FB78F72BEFD9F823BB7045
:100BF4000CE0BB78FF221946002001F00CFB0346F1
:100C0400184601F0F7FABB78083BBB70BB78002BA1
:100C1400EFD1F8237B700CE07B781A46002100208A
:100C240001F0F9FA0346184601F0E4FA7B78083B30
:100C34007B707B78002BEFD100BF00BF0837BD4627
:100C440080BD90B5ADF5797D00AF044608461146E8
:100C540007F57873A3F2DA3322461A8007F578731E
:100C6400A3F5777302461A8007F57873A3F2DE338F
:100C74000A461A8001F0E4F907F57873A3F5777250
:100C840007F57873A3F2DA3312881B88B2FBF3F307
:100C94009BB203F00103002B14BF0123002387F848
:100CA400DF3307F57873A3F2DE3207F57873A3F226
:100CB400DA3312881B88B2FBF3F39BB203F001030F
:100CC400002B14BF0123002387F8DE3307F5787364
:100CD400A3F5777207F57873A3F2DA3312881B88C9
:100CE400B2FBF3F39BB203F00103002B14BF012307
:100CF400002387F8D53307F57873A3F5777107F5E3
:100D04007873A3F5777307F57872A2F2DA321B8849
:100D14001288B3FBF2F000FB02F29B1A0B8007F57A
:100D24007873A3F2DE3107F57873A3F2DE3307F5A7
:100D34007872A2F2DA321B881288B3FBF2F000FB5D
:100D440002F29B1A0B8007F10803C7F8D03307F5AA
:100D54007873A3F577731B88A7F8DC3307F57873EA
:100D6400A3F2DE331B88A7F8DA330023A7F8D833BD
:100D7400B5E0B7F8D83303F00103002B04D1D7F85A
:100D8400D03303F5F07301E0D7F8D033C7F8CC3390
:100D9400B7F8D83303F00103002B04D0D7F8D033CD
:100DA40003F5F07301E0D7F8D033C7F8C83397F8E8
:100DB400D53387F8DF33B7F8D833002B05D04FF499
:100DC400F071D7F8CC0300F099FFB7F8D833EF2BC4
:100DD40057D807F57873A3F577731B88A7F8DC3326
:100DE4000023A7F8D63348E097F8DF2397F8DE33DB
:100DF4009A4210D1B7F8D833D8B2B7F8D633D9B2AB
:100E0400B7F8D833DBB2DB43DBB21A4601F003FA9E
:100E14000346194601E04FF6FF71B7F8D6335B007D
:100E2400D7F8C82313440A461A80B7F8DC330133D1
:100E3400A7F8DC3307F57873A3F2DA33B7F8DC23C9
:100E44001B889A4214D197F8DF33002B14BF012377
:100E54000023DBB283F00103DBB287F8DF3397F8BA
:100E6400DF3303F0010387F8DF330023A7F8DC3313
:100E7400B7F8D6330133A7F8D633B7F8D633EF2B08
:100E8400B2D9B7F8D833002B01D000F075FFB7F80A
:100E9400DA330133A7F8DA3307F57873A3F2DA33D8
:100EA400B7F8DA231B889A4214D197F8DE33002B63
:100EB40014BF01230023DBB283F00103DBB287F804
:100EC400DE3397F8DE3303F0010387F8DE330023C3
:100ED400A7F8DA33B7F8D8330133A7F8D833B7F81B
:100EE400D833F02B7FF645AF00BF00BF07F5797705
:100EF400BD4690BD80B588B000AF0123FB830023BD
:100F0400BB8300237B8300237B610BE0FB8B0133DA
:100F1400FB837A8BB98BFB8B1846FFF792FE7B69B8
:100F240001337B617B69312BF0D900233B610BE0FA
:100F3400BB8B0333BB837A8BB98BFB8B1846FFF7D0
:100F440080FE3B6901333B613B69312BF0D90023BF
:100F5400FB6014E0BB8B0333BB83FB683E4AA2FBFC
:100F64000323DB089AB27B8B13447B837A8BB98B84
:100F7400FB8B1846FFF765FEFB680133FB60FB68DB
:100F8400312BE7D90023BB601EE0BB68334AA2FBC8
:100F94000323DB089AB2BB8B13449BB20333BB839A
:100FA400BB682D4AA2FB0323DB089AB27B8B134454
:100FB4009BB205337B837A8BB98BFB8B1846FFF787
:100FC40040FEBB680133BB60BB68632BDDD90023E3
:100FD4007B600EE0BB8B0733BB837B8B0F337B8340
:100FE4007A8BB98BFB8B1846FFF72BFE7B6801339A
:100FF4007B607B68132BEDD900233B6024E03B68C6
:101004001A46DB00D31A03F52F73144AA2FB0323F9
:101014005B099AB2BB8B1344BB833B681A461B0122
:10102400D31A03F2DC530D4AA2FB03235B099AB2E1
:101034007B8B13447B837A8BB98BFB8B1846FFF72E
:1010440000FE3B6801333B603B68632BD7D900BF8C
:1010540000BF2037BD4680BDCDCCCCCC1F85EB5125
:1010640080B48BB000AFF860B9601346FB80FB68B6
:101074007B62BB683B620023FB8320E07B6A03FB4B
:1010840003F35B13BB613B6A03FB03F35B137B61F9
:10109400BA697B691344B3F5004F15DC7B6A3A6A7D
:1010A40002FB03F31B13BA6813443B62BA697B69FE
:1010B400D31AFA6813447B62FB8B0133FB83FA8BEC
:1010C400FB889A42DAD300E000BFFB8B18462C372A
:1010D400BD465DF8047B704790B5ADF27C4D00AF22
:1010E40007F58F64A4F26C44206007F58F60A0F5C7
:1010F4008E60016007F58F61A1F274410A6007F503
:101104008F62A2F58F62136000F09AFF07F19403D7
:10111400C7F864340023C7F8743426E0B7F8882489
:10112400D7F87434D31A013B1A02B7F88834B2FBE7
:10113400F3F3D8B2D7F874341A02B7F88834B2FB90
:10114400F3F3DBB20022194601F065F803461946B1
:1011540007F58F63A3F26443D7F8742423F81210BD
:10116400D7F874340133C7F87434B7F88834D7F82F
:1011740074249A42D2D307F58F63A3F2744207F51D
:101184008F63A3F26C4312681B68D31A5E4A82FB16
:1011940003121A44D211DB17D31AC7F8603407F5C7
:1011A4008F63A3F58F6207F58F63A3F58E631268CF
:1011B4001B68D31A544A82FB03121A44D211DB1758
:1011C400D31AC7F85C3407F58F63A3F58F631B68E4
:1011D400C7F86C34002387F86A3489E097F86A34D6
:1011E40003F00103002B04D1D7F8643403F5F07342
:1011F40001E0D7F86434C7F8583497F86A3403F038
:101204000103002B04D0D7F8643403F5F07301E034
:10121400D7F86434C7F8543497F86A34002B05D0EF
:101224004FF4F071D7F8580400F068FD07F58F63A8
:10123400A3F26C431B68C7F87034002387F86B343F
:1012440034E0B7F888341A46D7F86C14D7F8700429
:10125400FFF706FF0346A7F86834B7F86824B7F821
:1012640088349A4203D10023A7F8683409E0B7F818
:10127400682407F58F63A3F2644333F81230A7F8A8
:10128400683497F86B345B00D7F854241344B7F8E8
:1012940068241A80D7F87024D7F860341344C7F848
:1012A400703497F86B34013387F86B3497F86B34E8
:1012B400EF2BC6D9D7F86C24D7F85C34D31AC7F807
:1012C4006C3497F86A34002B01D000F055FD97F880
:1012D4006A34EF2B07D14FF4F071D7F8540400F0BF
:1012E4000DFD00F049FD97F86A34013387F86A343C
:1012F40097F86A34EF2B7FF671AF00BF00BF07F297
:101304007C47BD4690BD00BF898888882DE9F00FD1
:1013140096B000AFC7E90A01C7E90823D7E90A2351
:10132400C7E91423D7E90823C7E912230023A7F840
:10133400463082E07A6D3B6D03FB02F17A6D3B6DC2
:1013440002FB03F3CA183B6DA3FB034553191D4667
:101354004FF000024FF00003220D42EA05322B1534
:10136400C7E90E23FA6CBB6C03FB02F1FA6CBB6C8D
:1013740002FB03F3CA18BB6CA3FB038902EB09034A
:1013840099464FF000024FF000034FEA185242EA28
:1013940009324FEA2953C7E90C23D7E90E01D7E9EB
:1013A4000C2386183E6141EB03037B612B4BD7E989
:1013B400040102469A420B4673F1000344DA7A6D43
:1013C400BB6C03FB02F1FA6C3B6D02FB03F31944A3
:1013D4003A6DBB6CA2FB03AB01EB0B039B464FF0D6
:1013E40000004FF000014FEADA4040EA4B304FEA88
:1013F400EB41D7E908231618BE604B41FB60D7E9DF
:101404000223C7E91223D7E90E01D7E90C23861A70
:10141400BE6161EB0303FB61D7E90A23B969511883
:101424003960F9694B417B60D7E90023C7E914238C
:10143400B7F846300133A7F84630B7F84630B3F56D
:10144400806FFFF477AF00E000BFB7F8463018466E
:101454005837BD46BDE8F00F704700BF010040009B
:101464002DE9F04FADF6144D00AF07F11006C6E9B3
:10147400000107F1100141E9022300F0E1FD07F644
:101484001803C7F8F03B0023C7F80C3C3BE0D7F83F
:101494000C3C3F2B0ADCD7F80C3CC3F57F730333B9
:1014A400002B00DA03339B10D8B200E00020D7F8F9
:1014B4000C3C3F2B05DCD7F80C3CDBB29B00DBB2C9
:1014C4000CE0D7F80C3CB3F59F7F06DCD7F80C3C56
:1014D400DBB2C3F13F03DBB200E00023D7F80C2CEE
:1014E400D2B2194600F097FE0346194607F5416348
:1014F400A3F6F833D7F80C2C23F81210D7F80C3CC9
:101504000133C7F80C3CD7F80C3CB3F5806FBEDB55
:1015140007F1100307F63842D2E90001D3E90023AA
:10152400861A3E6061EB03037B604FF0F0024FF0DC
:101534000003D7E90001FEF72BFE02460B4607F62F
:10154400E831C1E9002307F1100307F54462D2E949
:10155400000153E90223B0EB020A61EB030B4FF0E5
:10156400F0024FF0000350465946FEF711FE0246C2
:101574000B4607F53E61C1E9002307F54463D3E94F
:10158400002307F6F831C1E90023002387F8F63B6E
:101594009BE097F8F63B03F00103002B04D1D7F846
:1015A400F03B03F5F07301E0D7F8F03BC7F8DC3B00
:1015B40097F8F63B03F00103002B04D0D7F8F03B77
:1015C40003F5F07301E0D7F8F03BC7F8D83B97F880
:1015D400F63B002B05D04FF4F071D7F8DC0B00F08C
:1015E4008DFB07F11003D3E9002307F54061C1E93E
:1015F4000023002387F8F73B3CE007F6F833D3E9F0
:10160400002307F54061D1E90001FFF77FFE03469F
:10161400A7F8F43BB7F8F43BB3F5806F03D100238C
:10162400A7F8F43B09E0B7F8F42B07F54163A3F6F8
:10163400F83333F81230A7F8F43B97F8F73B5B0024
:10164400D7F8D82B1344B7F8F42B1A8007F5406366
:10165400D3E9000107F6E833D3E90023841841EB0A
:10166400030507F54063C3E9004597F8F73B0133E9
:1016740087F8F73B97F8F73BEF2BBED907F6F8331B
:10168400D3E9000107F53E63D3E90023B0EB020878
:1016940061EB030907F6F833C3E9008997F8F63BD1
:1016A400002B01D000F068FB97F8F63BEF2B07D135
:1016B4004FF4F071D7F8D80B00F020FB00F05CFB7E
:1016C40097F8F63B013387F8F63B97F8F63BEF2B98
:1016D4007FF65FAF00BF00BF07F61447BD46BDE805
:1016E400F08F00002DE9B04F8EB004AF4FF04043AF
:1016F4007B62814B3B62814BFB61814BBB61814BC4
:10170400FB604FF07853BB607F4B7B607F4B3B604B
:1017140008237B6133E0D7ED097A9FED7D7A67EE8C
:10172400877AFDEEE76AD7ED087A9FED797A67EE5E
:10173400877ABDEEE76AD7ED077A9FED757A67EE93
:10174400877AFDEEE75AD7ED067A9FED717A67EE58
:10175400877AFDEEE77A7B699BB2009317EE903AA5
:1017640015EE902A16EE101A16EE900AFFF7B4FC46
:1017740044F6206000F052FA7B6901337B617B6997
:101784000F2BC8D900233B6171E0D7ED097AB2EE83
:10179400027A27EE877AD7ED037A37EE277AF2EECC
:1017A400046AC7EE267AC7ED097AD7ED077AB2EE56
:1017B400027A27EE877AD7ED017A37EE277AF2EEAE
:1017C400046AC7EE267AC7ED077AD7ED087AB2EE37
:1017D400027A27EE877AD7ED027A37EE277AF2EE8D
:1017E400046AC7EE267AC7ED087AD7ED067AB2EE18
:1017F400027A27EE877AD7ED007A37EE277AF2EE6F
:10180400046AC7EE267AC7ED067AD7ED097A9FED0A
:10181400407A67EE877AFDEEE76AD7ED087A9FEDA6
:101824003C7A67EE877ABDEEE76AD7ED077A9FEDDB
:10183400387A67EE877AFDEEE75AD7ED067A9FEDA0
:10184400347A67EE877AFDEEE77A3B699BB2103310
:101854009BB2009317EE903A15EE902A16EE101AEA
:1018640016EE900AFFF738FC3B6901333B613B6994
:10187400172B8AD9D7ED037A9FED267A67EE877AFC
:1018840017EE900A00F0A5FD80468946D7ED027A4E
:101894009FED207A67EE877A17EE900A00F099FDA3
:1018A40082468B46D7ED017A9FED1A7A67EE877AE6
:1018B40017EE900A00F08DFD04460D46D7ED007A30
:1018C4009FED147A67EE877A17EE900A00F081FD97
:1018D40002460B46CDE90223CDE9004552465B465C
:1018E40040464946FFF7BCFD0B4800F097F900BF9E
:1018F4002837BD46BDE8B08FCDCCACBF3333333FC2
:10190400CDCCAC3F77BE3FBF1B2F3DBF713D0A3EE0
:10191400000000460000804900093D0080B5FEB08B
:1019240000AF07F5FC73A3F5FA7318600023A7F85A
:10193400F6310023A7F8F4310023C7F8EC31002076
:1019440000F058FC00F07CFB49E00023C7F8F031BC
:101954002EE0D7F8F0315B00B7F8F421C82101FB81
:1019640002F21A4407F5FC73A3F5FA731B681344D7
:101974001B68C7F8EC31D7F8EC311B0C99B207F5AA
:10198400FC73A3F5F673D7F8F02123F81210D7F8F7
:10199400F0315A1CD7F8EC3199B207F5FC73A3F572
:1019A400F67323F81210D7F8F0310233C7F8F03188
:1019B400D7F8F031632BCCD907F10C034FF4F07155
:1019C400184600F09BF900F0D7F9B7F8F631013367
:1019D400A7F8F631B7F8F4310133A7F8F431B7F8C2
:1019E400F631EF2BB1D9044800F018F900BF07F520
:1019F400FC77BD4680BD00BF80841E0080B485B0E6
:101A040000AF7860084B1B68FB6000BF064B1A6888
:101A1400FB68D31A7A689A42F8D800BF00BF14371B
:101A2400BD465DF8047B70475004002080B400AFCD
:101A34000F4B1B6B0E4A43F0040313630D4B9B695E
:101A44000C4A43F4005393610A4B1B6823F0406330
:101A5400084A43F080631360064B5B68054A23F42D
:101A64000053536000BFBD465DF8047B704700BF60
:101A7400003802400008024080B400AF3E4B1B68AF
:101A84003D4A43F4807313603B4B1B6823F0070308
:101A9400394A43F00203136000BF374B1B6803F05D
:101AA4000703022BF9D1354B5B68344A23F03F031B
:101AB4005360324B5B68314A43F0190353602F4B38
:101AC4005B682E4A23F4FF4323F0400353602B4BFF
:101AD4005B682A4A43F428535360284B5B68274ABF
:101AE40023F440335360254B5B68244A43F480035A
:101AF4005360224B9B68214A23F0800393601F4B61
:101B04009B6823F4E0531D4A43F4805393601B4BBA
:101B14009B681A4A23F400439360184B1B68174AC6
:101B240043F48033136000BF144B1B6803F4003389
:101B3400002BF9D0114B1B68104A43F080731360DB
:101B440000BF0E4B1B6803F00073002BF9D00B4B46
:101B54009B6823F00303094A43F00203936000BF28
:101B6400064B9B6803F00C03082BF9D100BF00BFA0
:101B7400BD465DF8047B7047003C024000380240DB
:101B840080B500AFFFF778FF00F07AFB184B1B68B5
:101B9400184AA2FB03239B091846FEF72BFFFFF705
:101BA40045FFFEF749FFFEF763FF00F053F800F02E
:101BB4003DF9114B9B69104A43F0005393614FF474
:101BC400FA70FFF71BFF0C4B9B690B4A43F400535D
:101BD40093614FF49670FFF711FF0848FFF79EFEDC
:101BE400FEF7A2FFFFF786F9FFF77CFDE1E700BFF0
:101BF4002C040020D34D62100008024000000208AB
:101C040080B400AF044B1B680133034A136000BF68
:101C1400BD465DF8047B70475004002080B485B055
:101C240000AF78607B68DB01094AA2FB03239B08B1
:101C3400FB6003E000BFFB68013BFB60FB68002B1B
:101C4400F8D100BF00BF1437BD465DF8047B704770
:101C5400ABAAAAAA80B500AF0A4B5B69094A23F470
:101C64000073536142F21070FFF7D8FF054B5B69B4
:101C7400044A43F4007353610348FFF7CFFF00BFE6
:101C840080BD00BF00040240C0D4010080B400AF96
:101C9400054B5B69044A23F00203536100BFBD4650
:101CA4005DF8047B704700BF0000024080B400AFC1
:101CB400054B5B69044A43F00203536100BFBD4610
:101CC4005DF8047B704700BF0000024080B483B01D
:101CD40000AF0346FB7100BF074B9B6803F0020390
:101CE400002BF9D0044AFB79D36000BF0C37BD4602
:101CF4005DF8047B704700BF0030014080B483B0BE
:101D040000AF78600B467B80164B174A1A60154A61
:101D14007B68D360134B154A9A60124A7B885360E0
:101D2400134B1B68124A23F040031360104B5B688B
:101D34000F4A43F0020353600D4B1B680C4A43F0F7
:101D4400400313600B4B4FF0FF329A60054B1B6846
:101D5400044A43F00103136000BF0C37BD465DF82D
:101D6400047B704758640240400400060C30014074
:101D7400003001400064024080B400AF00BF054B56
:101D84005B68002BFBD100BF00BFBD465DF8047B40
:101D9400704700BF5864024080B584B000AF7860DB
:101DA400FFF774FF7B681B781846FFF78FFF7B688B
:101DB4009B78002B14D0FFF779FF0023FB730AE014
:101DC4007B685A68FB7B13441B781846FFF77EFF39
:101DD400FB7B0133FB737B689B78FA7B9A42EFD3DE
:101DE4007B685B78002B09D07B685B781A464FF4DC
:101DF4007A7302FB03F31846FFF710FF00BF103796
:101E0400BD4680BD80B582B000AF786005E07868DB
:101E1400FFF7C2FF7B6808337B607B681B78FF2B6E
:101E2400F5D100BF00BF0837BD4680BDB0B5AEB028
:101E340000AF4FF06F43C7F8B4304FF06F43C7F8AB
:101E4400B030102387F820300A2387F8213000238C
:101E540087F8223000237B62012387F82830C823C7
:101E640087F82930002387F82A300023FB621123E6
:101E740087F83030782387F83130002387F8323000
:101E840000237B63362387F83830002387F8393002
:101E9400012387F83A305E4BFB633A2387F84030DE
:101EA400002387F84130012387F84230594B7B6483
:101EB400212387F84830002387F84930002387F826
:101EC4004A300023FB642A2387F85030002387F824
:101ED4005130042387F8523007F1B4037B652B2378
:101EE40087F85830002387F85930042387F85A308C
:101EF40007F1B003FB65B22387F86030002387F84D
:101F04006130052387F86230434B7B66B72387F83B
:101F14006830002387F86930012387F86A303F4B23
:101F2400FB66BB2387F87030002387F871300123E8
:101F340087F872303A4B7B67C02387F878300023E8
:101F440087F87930012387F87A30364BFB67C22350
:101F540087F88030002387F88130022387F88230A5
:101F6400314BC7F88430C42387F88830002387F8BE
:101F74008930012387F88A302C4BC7F88C30C6236C
:101F840087F89030002387F89130012387F8923046
:101F9400274BC7F89430D02387F89830002387F86C
:101FA4009930022387F89A30224BC7F89C30B0232B
:101FB40087F8A030002387F8A130022387F8A230E5
:101FC4001D4BC7F8A430FF2387F8A830002387F8F7
:101FD400A930002387F8AA300023C7F8AC3007F1F2
:101FE40020031846FFF70EFF002000F003F9134BFF
:101FF4003C461D460FCD0FC495E80F0084E80F0042
:102004003B461846FFF7FEFE00BFB837BD46B0BDDD
:10201400D8260008DC260008E0260008E826000888
:10202400EC260008F0260008F4260008F82600082C
:10203400FC260008002700080427000808270008D9
:1020440080B500AFFFF722FE2C20FFF73FFEFFF71D
:102054002DFE00BF80BD90B58DB000AF044608468C
:1020640011461A462346FB800346BB800B467B8001
:1020740013463B80FB881B0A9BB2DBB287F82C30EB
:10208400FB88DBB287F82D307B881B0A9BB2DBB25E
:1020940087F82E307B88DBB287F82F30BB881B0A89
:1020A4009BB2DBB287F82830BB88DBB287F82930D3
:1020B4003B881B0A9BB2DBB287F82A303B88DBB231
:1020C40087F82B302A233B7200237B720423BB72D4
:1020D40007F12C03FB602B233B7400237B74042344
:1020E400BB7407F128037B612C233B7600237B76AA
:1020F4000023BB760023FB61FF2387F820300023F5
:1021040087F82130002387F8223000237B62FFF711
:10211400BDFD07F108031846FFF774FEFFF7C6FD7F
:1021240000BF3437BD4690BD90B5A7B000AF04469C
:10213400084611461A462346FB800346BB800B46DD
:102144007B8013463B800023C7F894300CE0D7F81B
:1021540094305B0098333B44FA8823F88C2CD7F8EE
:1021640094300133C7F89430D7F894303F2BEED92C
:10217400BA883B8813449BB2013B9CB27A88B7F877
:10218400A83013449BB2013B9BB27988B88822469D
:10219400FFF761FF3B88B7F8A82002FB03F35B005D
:1021A400C7F890308023A7F88E301AE0B7F88E3045
:1021B400D7F890209A4203D2D7F89030A7F88E30FF
:1021C400B7F88E30D7F89020D31AC7F89030B7F804
:1021D4008E2007F10C0311461846FFF78FFDFFF719
:1021E400CBFDD7F89030002BE0D100BF00BF9C3767
:1021F400BD4690BD80B584B002AF0346FB80F8882D
:10220400F0230093F02300220021FFF78DFF00BF8D
:102214000837BD4680BD80B483B000AF0346FB7170
:102224000B46BB7113467B71FB79DB08DBB2DB0227
:102234001AB2BB799B08DBB25B011BB213431AB21F
:102244007B79DB08DBB21BB213431BB29BB218468B
:102254000C37BD465DF8047B7047000080B400AFC6
:10226400064BD3F88830054A43F47003C2F888302B
:1022740000BFBD465DF8047B704700BF00ED00E081
:1022840080B487B000AF00233B6100237B6102234D
:10229400FB600023BB6002237B60344B9B6803F02C
:1022A4000C033B613B69082B11D03B69082B44D8D4
:1022B4003B69002B03D03B69042B04D03DE02C4B3D
:1022C4002C4A1A603DE02A4B2B4A1A6039E0274B0E
:1022D4005B689B0D03F00103BB60244B5B6803F058
:1022E4003F037B60BB68002B0CD0234A7B68B2FBA6
:1022F400F3F31E4A52689209C2F3080202FB03F385
:102304007B610BE01B4A7B68B2FBF3F3174A52680C
:102314009209C2F3080202FB03F37B61134B5B686F
:102324001B0C03F0030301335B00FB607A69FB6859
:10233400B2FBF3F30E4A136003E00D4B0D4A1A602F
:1023440000BF0A4B9B681B0903F00F030B4AD35CC5
:102354003B61074B1A683B6922FA03F3044A136092
:1023640000BF1C37BD465DF8047B7047003802404F
:102374002C0400200024F40040787D012C27000860
:10238400DFF834D00D480E490E4A002302E0D45839
:10239400C4500433C4188C42F9D30B4A0B4C0023A9
:1023A40001E013600432A242FBD3FFF757FFFEF7AC
:1023B40083FAFFF7E5FB70470000012000000020CE
:1023C400300400205027000830040020540400206A
:1023D400FEE707EE900AF5EEC07AF1EE10FA08B5C2
:1023E40003D4BDE8084000F00BB8F1EE677A17EEAD
:1023F400900A00F005F8404261EB410108BD00007D
:10240400D0B5FEF7A5F90C4B002206460F46FDF7A2
:102414000FFFFEF7F5F90446FEF778F9074B0022A3
:10242400FDF706FF02460B4630463946FEF730F804
:10243400FEF7E6F92146D0BD0000F03D0000F04172
:102444002DE9F0478C468E46089E154604461946EB
:10245400002B40F0AF807245B2FA82F743D94FB1F6
:10246400C7F120030EFA07FC20FA03F3BD4043EA48
:102474000C0CBC404FEA154EA8B2BCFBFEF8230C72
:102484000EFB18CC08FB00F943EA0C43994528D904
:10249400EB1808F1FF3204D2994502D9A8F10202DF
:1024A4002B44A3EB0903B3FBFEFCA4B20EFB1C33C9
:1024B4000CFB00F044EA0344A04279D92C190CF136
:1024C400FF3304D2A04202D9ACF102032C44241AF3
:1024D40043EA02401EB1FC40002334607360BDE84F
:1024E400F0874246DDE702B9FFDEE7B9AEEB02034F
:1024F40001214FEA154EA8B2B3FBFEFC220C0EFBE1
:102504001C330CFB00F842EA034398454ED9EB1800
:102514000CF1FF3204D2984502D9ACF102022B44EB
:10252400A3EB0803BFE7C7F120012EFA01F3BD4076
:102534000EFA07FE20FA01F141EA0E014FEA154EA8
:10254400AAB2B3FBFEFC0EFB1C300B0C0CFB02F816
:1025540043EA0043984504FA07F423D9EB180CF135
:10256400FF3004D2984502D9ACF102002B44A3EB0E
:102574000803B3FBFEFC0CFB02F80EFB1C328BB20F
:1025840043EA024398450FD9EB180CF1FF3104D20A
:10259400984502D9ACF102012B44A3EB080341EAAC
:1025A4000041A6E76046E2E76146F6E76246B7E720
:1025B40063468CE7734505D90EB1C6E9000E0021C8
:1025C40008468CE7B3FA83F787B9734501D382428F
:1025D4000AD8841A6EEB030301209C46002E6AD0AD
:1025E400C6E9004C00217AE73846F7E7C7F1200C2A
:1025F400BB4022FA0CF41C4320FA0CF12EFA0CF323
:102604000EFA07FE41EA0E014FEA144900FA07F5F3
:10261400B3FBF9F81FFA84FE09FB18300B0C08FB16
:102624000EFA43EA00439A4502FA07F23FD9E31847
:1026340008F1FF3004D29A4502D9A8F102002344DC
:10264400A3EB0A0389B2B3FBF9F809FB183308FBBF
:102654000EFE41EA03418E452BD9611808F1FF3380
:1026640004D28E4502D9A8F10203214443EA004072
:10267400A0FB0298A1EB0E014145CE46434602D38E
:1026840006D14D4504D2B9EB020E68EB04030138C0
:102694008EB1B5EB0E0261EB030101FA0CFC22FAD8
:1026A40007F34CEA0303F940C6E900319AE74046D0
:1026B400C6E74346DAE7314611E70000F8B500BF44
:1026C400F8BC08BC9E467047F8B500BFF8BC08BC0F
:0426D4009E46704767
:1026D80000000000550000000C0C0033330000001F
:1026E800350000001F0000002C00000001C300009E
:1026F800200000000F000000A4A100000008000056
:1027080029640000000000001164000000000000BF
:102718003500000000000000FF000000000000007D
:102728000000002000000000000000000102030477
:04273800060708097F
:08273C0008FDFF7F0100000011
:0827440089090008690800087A
:04274C004508000834
:1027500000000000EC02002054030020BC03002015
:102760000000000000000000000000000000000069
:102770000000000000000000000000000000000059
:102780000000000000000000000000000000000049
:102790000000000000000000000000000000000039
:1027A0000000000000000000000000000000000029
:1027B0000000000000000000000000000000000019
:1027C0000000000000000000000000000000000009
:1027D00000000000000000000000000000000000F9
:1027E00000000000000000000000000000000000E9
:1027F00000000000000000000100000000000000D8
:102800000E33CDAB34126DE6ECDE05000B0000009C
:1028100000000000000000000000000000000000B8
:1028200000000000000000000000000000000000A8
:102830000000000000000000000000000000000098
:102840000000000000000000000000000000000088
:102B700000000000000000004C0400200024F400CD
:040000050800238547
:00000001FF
